:020000040800F2
:1000000010040020490100089F0100089701000822
:100010009B01000891010008510200080000000047
:10002000000000000000000000000000CB010008FC
:100030009501000800000000C9010008CD0100087A
:100040006301000863010008630100086301000800
:1000500063010008630100086301000863010008F0
:1000600063010008630100086301000863010008E0
:1000700063010008630100086301000863010008D0
:1000800063010008630100086301000863010008C0
:1000900063010008630100086301000863010008B0
:1000A00063010008630100086301000863010008A0
:1000B0006301000863010008630100086301000890
:1000C0006301000863010008630100086301000880
:1000D0006301000863010008630100086301000870
:1000E0006301000863010008630100086301000860
:1000F0006301000863010008630100086301000850
:10010000630100086301000863010008630100083F
:10011000630100086301000863010008630100082F
:10012000630100086301000863010008630100081F
:10013000DFF810D000F01AF800480047E904000882
:10014000AFF30080100400200648804706480047AF
:10015000FEE7FEE7FEE7FEE7FEE7FEE7FEE7FEE777
:10016000FEE7FEE7D501000831010008064C074D07
:1001700006E0E06840F0010394E807009847103477
:10018000AC42F6D3FFF7D8FF140A0008340A00087F
:1001900000BFFEE7704700BFFEE700BFFEE7704705
:1001A00010B5002807DA0A07140E054A00F00F03FD
:1001B0001B1FD45403E00A07130E024A135410BD48
:1001C00018ED00E000E400E07047704710B500F063
:1001D0000FF910BD08B51B48006840F470001949BC
:1001E00008601948006840F0010017490860084697
:1001F000406840F0800048600020009002E00098D5
:10020000401C009044F6206100988842F7D30E48C5
:10021000406820F003000C494860084600680B491C
:100220000840094908604FF41F00886008460068CC
:1002300020F48020086000204860C86200F006FBBF
:1002400008BD000088ED00E000100240FFFFF6FE50
:1002500000BFFEE70FB4054B10B503A9044A02988E
:1002600000F017F810BC5DF814FB0000090400084A
:100270000800002002E008C8121F08C1002AFAD1B5
:1002800070477047002001E001C1121F002AFBD116
:1002900070472DE9F84F9946924688460546002753
:1002A00006E025280AD051464A4690476D1C7F1C1F
:1002B00028780028F5D13846BDE8F88F002315F8D6
:1002C000011F18462E2915D115F8011F04232A29CC
:1002D0000DD06FF02F022978A1F13004092C09D834
:1002E00000EB800002EB400008446D1CF3E758F877
:1002F000040B6D1C2A78002ADDD0632A07D0732AEC
:100300000FD0104651464A4690477F1C2AE018F805
:10031000042B8DF8002000218DF801106E4601217C
:1003200003E058F8046B4FF0FF315A074FF0000418
:1003300001D409E0641C84420BDA8C42FADB325DA2
:10034000002AF7D105E0641C8C42FCDB305D0028FC
:10035000F9D1274404E016F8010B51464A4690476C
:10036000641EF8D26D1CA3E710B540F2046000F0E3
:10037000B3F940F2056000F0AFF940F2147000F0FC
:10038000ABF94FF48053032218210E4800F04EF8C9
:100390000423032219460C4800F048F80B4800F0EB
:1003A000CDFA4FF4E131094800F07CFA0421074806
:1003B00000F020FB0821054800F024FB034800F072
:1003C00005FB10BD0010014000140140005000402A
:1003D00010B500F03FFAFFF7C7FF10BD03490860F2
:1003E00000BF024909680029FBD1704700000020C6
:1003F0000448006820B103480068401E01490860B5
:10040000704700000000002070B504460D46E1B2C0
:10041000054800F08FFA00BF0721034800F0DBFA1F
:100420000028F9D0204670BD00500040F0B50446C9
:1004300016460025002201F00F0501F0100747B114
:10044000042E05D145F00305E76B1F43E76300E089
:10045000354300201EE0012787401F40C7B12268B6
:100460004FEA800C0F2707FA0CF7BA43870005FA0A
:1004700007F73A43282904D1012787401F406761C5
:1004800005E0482903D1012787401F4027612260EA
:10049000471CB8B20828DED3082022E00127874095
:1004A0001F40E7B16268A0F108074FEA870C0F27E9
:1004B00007FA0CF7BA43A0F10807BF0005FA07F7DF
:1004C0003A43282904D1012787401F40676105E08E
:1004D000482903D1012787401F4027616260471CDC
:1004E000B8B21028DAD3F0BDFFF772FF00BF0EA03C
:1004F000FFF7B0FE0FA212A114A0FFF7ABFE1AA0E7
:10050000FFF7A8FE00BF0EE000BF18A0FFF7A2FE95
:1005100019A0FFF79FFE14A0FFF79CFE00BF4FF449
:100520007A70FFF75BFFEFE75B492F4D41494E5D66
:100530002000000031313A30393A333600000000F3
:100540004465632020392032303232004669726DB2
:100550007761726520636F6D70696C652074696D79
:10056000653A2573202573000A0000005B442F4D77
:1005700041494E5D2000000072756E2E2E2E000047
:100580002DE9F04F8CB0074600200A904AA090E871
:10059000004CC068CDE905BECDF810A007900FF261
:1005A0001C1ADAE9000ACDE9020A0FF2101ADAE998
:1005B000000ACDE9000A44484068C0F381000B906E
:1005C0000B9820B1012804D002283FD103E03F4A14
:1005D0003EE03E4A3CE03C48406800F4803CBCF5CC
:1005E000803F12D13848C06A00F08048B8F1000F4F
:1005F00001D1364B00E0364B3348406800F40039F7
:10060000B9F5003F02D15B0800E0324B2E4840684C
:10061000C0F383412C48406800F0006008B141F00D
:1006200010012948406800F0804008B141F02001E5
:100630000F2901D2891C06E00F2903D33E2901D8D6
:10064000491C00E03F2103FB01F201E01F4A00BF0B
:1006500000BF1D484068C0F3031504A8465D22FA98
:1006600006F419484068C0F3022502A8465D24FA42
:1006700006F0099014484068C0F3C2251DF80560D3
:1006800024FA06F0089037B1012F06D0022F06D0C9
:10069000032F0AD106E00A9208E00A9406E00998BE
:1006A0000A9003E008980A9000E000BF00BF0A9893
:1006B0000CB0BDE8F08F000000000000000000005A
:1006C00001020304060708090010024000127A0024
:1006D000006CDC0200093D00064A02EB901109683B
:1006E00000F01F0301229A401143024B03EB9012CA
:1006F0001160704700100240064A02EB9011096831
:1007000000F01F0301229A409143024B03EB901229
:100710001160704700100240064A02EB9011096810
:1007200000F01F0301229A401143024B03EB901289
:100730001160704700100240002000213F4A1268FB
:1007400042F480323D4B1A6000BF401C3B4A1268A5
:1007500002F4003119B94FF6FF729042F5D1374AD1
:10076000126802F400320AB900BFFEE7334AD269C8
:1007700042F08052314BDA61314A126842F4404211
:100780002F4B1A602D4A52682C4B5A601A465268F9
:100790005A601A46526842F480625A601A46526899
:1007A00022F440325A601A46526842F440325A608B
:1007B0001A465268234B1A40204B5A601A46526818
:1007C000214B1A431D4B5A601A46126842F0807240
:1007D0001A6000BF194A126802F00072002AF9D0AC
:1007E000174A126842F48032154B1A6000BF144A4F
:1007F000526802F48032002AF9D0114A126842F499
:1008000000320F4B1A6000BF0D4A526802F40032EA
:10081000002AF9D0094A526822F00302074B5A60B5
:100820001A46526842F002025A6000BF034A5268F8
:1008300002F00802002AF9D07047000000100240C0
:1008400000700040FFFFC3B70000340810B5FFF789
:1008500073FF10BD10B5124800684FF47A71B0FBF9
:10086000F1F4601EB0F1807F01D301200FE0601E23
:100870004FF0E02148610F214FF0FF30FFF790FC6F
:1008800000204FF0E021886107200861002008B1B6
:1008900000BFFEE70021481EFFF782FC10BD0000EC
:1008A000040000202DE9F04704460D460027B84615
:1008B000B94600261D49601A8C421CD006DC1C4833
:1008C000204470B1B0F5806F1FD10FE0B0F5806F9C
:1008D00016D0B0F56C4F18D10320FFF751FE074634
:1008E00014E00220FFF74CFE07460FE00220FFF75E
:1008F00047FE07460AE00220FFF742FE074605E0F2
:100900000220FFF73DFE074600E000BF00BF07EBF7
:100910005500B0FBF5F64FF6F07006EA000806F059
:100920000F0948EA0900A060BDE8F087004C0040CC
:1009300000BCFFBFC1F308024260704710B5044617
:100940002049601A8C4228D006DC1F48204490B110
:10095000B0F5806F33D117E0B0F5806F26D0B0F5D9
:100960006C4F2CD140F20E30FFF7D6FE40F20E3025
:10097000FFF7C2FE24E040F21140FFF7CDFE40F247
:100980001140FFF7B9FE1BE040F21240FFF7C4FE32
:1009900040F21240FFF7B0FE12E040F21340FFF7C2
:1009A000BBFE40F21340FFF7A7FE09E040F21440FF
:1009B000FFF7B2FE40F21440FFF79EFE00E000BFDA
:1009C00000BF10BD004C004000BCFFBFC16841F437
:1009D0000051C160704710B5024602EB91100068EB
:1009E00001F01F040123A340184008B1012010BDED
:1009F0000020FCE70A460021C16821F004011143F0
:100A0000C16070470A460021C16821F00801114306
:100A1000C1607047340A0008000000200C0000008C
:100A200074020008400A00080C00002004040000C2
:100A30008402000800000000000E270700000000EC
:0400000508000131BD
:00000001FF
